:020000021000EC
:10E0000055C0000070C000006EC000006CC0000071
:10E010006AC0000068C0000066C0000064C0000064
:10E0200062C0000060C0000099C400005CC0000035
:10E030005AC0000058C0000056C0000054C0000084
:10E0400052C0000050C000004EC000004CC0000094
:10E050004AC0000048C0000046C0000044C00000A4
:10E0600042C0000040C000003EC000003CC00000B4
:10E070003AC0000038C0000036C0000034C00000C4
:10E0800032C0000030C000002EC000002CC00000D4
:10E090002AC0000028C000007FF584F509F684F549
:10E0A00009F688F5ADF509F6CDF5DFF511241FBEAB
:10E0B000CFEFD0E2DEBFCDBF11E0A0E0B1E0EAE2F9
:10E0C000FDEE01E00BBF02C007900D92AC35B10729
:10E0D000D9F721E0ACE5B1E001C01D92A937B20744
:10E0E000E1F761D120C68CCF8823B9F02091F200EE
:10E0F0003091F300232B69F49091E8009B7F90937B
:10E10000E8009091E80092FD06C09EB39111F9CF0E
:10E1100004C09091F1008150E7CF0895E6E6F1E068
:10E12000358124819381828190935E0180935F0188
:10E13000C90190935C0180935D010895CF93DF93B3
:10E1400000D000D000D0CDB7DEB7909165018091AE
:10E1500066019923D1F0843049F4809167018111DF
:10E1600008C0809168018F3F21F46AC0853009F4AE
:10E17000C1C08AE08093000183E0809363018091B5
:10E18000EB0080628093EB00E4C0843009F458C057
:10E1900028F4813051F0833031F1DBC0853009F44F
:10E1A000A9C0863009F4C9C0D4C08091670182300B
:10E1B00008F0CFC0B3DF80916701811112C0809158
:10E1C0005E0190915F0120916001A22FB0E023E0F9
:10E1D000FC01A0935B0020935700E89507B600FC74
:10E1E000FDCF85E007C080916701982F9D7F29F4BE
:10E1F00095DF89E080930001ACC0813009F0A9C0AF
:10E2000080E090E0DC01ABBFFC0127912F3F69F07B
:10E21000A093600190935F0180935E018AE08093F8
:10E22000000185E08093630194C00196A11DB11D9A
:10E23000811520EE920721E0A207B10521F789C0E0
:10E2400080916701833039F581E0809364012091EA
:10E250006C0130916D0180916801232B61F0813058
:10E2600009F077C090916B0180916A0190936101F0
:10E27000809362016EC081110BC09CE088E10FB6F3
:10E28000F894A895809360000FBE9093600061C0E1
:10E29000109201015EC081115CC0809168018F3FC6
:10E2A00009F057C080E090E0DC0123E035E0FC019C
:10E2B000A0935B0020935700E89507B600FCFDCFC4
:10E2C000FC01A0935B0030935700E89507B600FC73
:10E2D000FDCF9F5FAF4FBF4F811540EE940741E0E8
:10E2E000A407B10521F781E180935700E8951092CA
:10E2F00065012FC080E28C838CED8D838BEF8E8344
:10E300008EE1898387E98A8382E88B838091680123
:10E3100090916701911105C0FE01E80FF11D848104
:10E3200009C09130B1F4E1EDFFEFEC0FFD1FE80FF4
:10E33000F11D808180936E010CC080916701833054
:10E3400041F480916801811104C08091690180933A
:10E35000600126960FB6F894DEBF0FBECDBFDF91E9
:10E36000CF91089584B7877F84BF0FB6F894A8959E
:10E3700080916000886180936000109260000FBE01
:10E3800090E080E80FB6F89480936100909361006C
:10E390000FBE81E085BF82E085BFCAC269D281E03D
:10E3A00085BF15BE0895DEDF789480910101882332
:10E3B00011F092D4FACF809164018111FACFEEDF8F
:10E3C000E0916101F091620109958F929F92AF9265
:10E3D000BF92CF92DF92EF92FF921F93CF93DF9382
:10E3E000809177019091780190936D0180936C01F9
:10E3F00080917201833009F4A4C158F48130D1F0C6
:10E40000823009F0D0C18091E800877F8093E800D6
:10E410000BC1853009F4B3C108F4A9C1863009F0F5
:10E42000C2C18091E800877F8093E80082E08093FA
:10E430000001ADC18091E800877F8093E800809162
:10E440006401882319F07ADE1092640180916C01D6
:10E4500090916D01009751F12091E80022FD04C0D8
:10E460002EB32111F9CF9FC12091F10020936601B5
:10E47000019790936D0180936C01E7E6F1E025E050
:10E480002E0F8091F2009091F300892B71F0809112
:10E49000F100819380916C0190916D0101979093AF
:10E4A0006D0180936C012E13ECCF48DE809100014A
:10E4B000853009F0B1C080916C0190916D01892B7C
:10E4C00021F482E080930001A7C08AE10DDE8091F3
:10E4D0005E018F7109DE20915E0130915F018091B4
:10E4E0005C0190915D010196EC01C21BD30B809100
:10E4F000670181117FC0CE0196958795A901209172
:10E500006001622F70E04A015B0120E0C1E0D5E0CC
:10E5100013E0009709F44AC0E091F200F091F30093
:10E52000EF2BE1F00197E091F1003091F100AE2F77
:10E53000B32F0D01FA0160935B00C0935700E8957B
:10E5400011242F5F6A017B0132E0C30ED11CE11C54
:10E55000F11CB701A601203871F40FC03091E8001A
:10E560003B7F3093E8003091E80032FDDBCF3EB3D3
:10E570003111F9CF18C1009761F6F401A0925B0048
:10E58000D0935700E89507B600FCFDCF009709F43B
:10E59000C0CFF601E0925B0010935700E89507B6F4
:10E5A00000FCFDCF4601570120E0B3CF80915C0114
:10E5B00090915D0190935F0180935E0181E1809372
:10E5C0005700E89527C08091F2009091F300892BC5
:10E5D000A1F06091F100219780915E0190915F011F
:10E5E00094D380915E0190915F01019690935F01B9
:10E5F00080935E01209739F70DC08091E8008B7FF2
:10E600008093E8008091E80082FDE3CF8EB3811112
:10E61000F9CFC9C080E168DD8091E8008B7F8EC0B2
:10E620008EB3882309F4BFC08091E80080FFF8CF43
:10E6300080910001893091F08A3059F4809167010E
:10E64000813039F490915E0180915F019093F100E7
:10E6500002C080916E018093F1006DC020915E0137
:10E6600030915F01C0915C01D0915D012196C21B88
:10E67000D30B80916701811132C0D695C795C9012E
:10E6800020916001A22FB0E0219700F12091F200CB
:10E690003091F3002032310561F0ABBFFC012791CE
:10E6A00036912093F1003093F1000296A11DB11D27
:10E6B000EBCF2091E8002E7F2093E8002091E80026
:10E6C00020FDEBCF2EB32111F9CF6DC080915C01FD
:10E6D00090915D0190935F0180935E0129C082302B
:10E6E00039F5209729F18091F2009091F3008097FD
:10E6F00091F080915E0190915F01FFD28093F100D3
:10E7000080915E0190915F01019690935F018093EB
:10E710005E012197E6CF8091E8008E7F8093E8002C
:10E720008091E80080FDE5CF8EB38111F9CF3BC029
:10E7300082E0809300018091E8008E7F8093E80062
:10E7400026C08091E800877F8093E8008091630174
:10E750008093F1001092F1001092F1001092F100FC
:10E76000809100018093F1001092F100E4CF80913C
:10E77000E800877F8093E8001092630108C08091D1
:10E78000E800877F8093E8008091000164CFDF91EB
:10E79000CF911F91FF90EF90DF90CF90BF90AF90FF
:10E7A0009F908F9048C0DF91CF911F91FF90EF9085
:10E7B000DF90CF90BF90AF909F908F900895292FBA
:10E7C00030E02230310559F02330310569F0213035
:10E7D0003105C1F482E190E029E431E017C08BE11A
:10E7E00090E02EE231E012C0811106C080912A0132
:10E7F00090E02AE231E00AC08091020190E022E03C
:10E8000031E004C080E090E020E030E0FA013183A4
:10E8100020830895EBEEF0E0808181608083EDEE4F
:10E82000F0E010826093EC0040838091EE00881F3E
:10E830008827881F08958091710187FF0FC08091FC
:10E84000E80082FD04C08EB38111F9CF10C0809121
:10E85000E8008B7F0AC08EB3882349F08091E800DE
:10E8600080FFF9CF8091E8008E7F8093E8000895C3
:10E8700068D06FD0E0EEF0E0808181608083E8EDC9
:10E88000F0E080818F77808319BCA7EDB0E08C9198
:10E890008E7F8C9380818F7E80831092700108958B
:10E8A00050D057D08091D800982F9F779093D80060
:10E8B00080688093D8008CE089BD89B5826089BD6D
:10E8C00009B400FEFDCF8091D8008F7D8093D800E1
:10E8D0008091D70080688093D7001EBA10926F0194
:10E8E0008091E0008B7F8093E0008091D800816070
:10E8F0008093D80042E260E080E08CDF8091E1000C
:10E900008E7F8093E1008091E20081608093E2003D
:10E910008091E20088608093E2008091E0008E7F29
:10E920008093E0008091D80080618093D8000895A2
:10E93000E7EDF0E080818160808381E08093700169
:10E94000AFCFE8EDF0E080818C7F80831092E20011
:10E9500008951092DA001092E10008951F920F922C
:10E960000FB60F9211240BB60F922F933F934F9334
:10E970005F936F937F938F939F93AF93BF93EF9327
:10E98000FF938091DA0080FF13C08091D80080FF50
:10E990000FC08091DA008E7F8093DA008091D900D9
:10E9A00080FF04C081E08EBB3DD102C01EBA3AD1C7
:10E9B0008091E10080FF1CC08091E20080FF18C0C0
:10E9C0008091E1008E7F8093E1008091E2008E7F54
:10E9D0008093E2008091E20080618093E200809168
:10E9E000D80080628093D80019BC85E08EBB1AD114
:10E9F0008091E10084FF2DC08091E20084FF29C056
:10EA00008CE089BD89B5826089BD09B400FEFDCF67
:10EA10008091D8008F7D8093D8008091E1008F7E17
:10EA20008093E1008091E2008F7E8093E2008091EC
:10EA3000E20081608093E20080916F01811106C045
:10EA40008091E30087FD02C081E001C084E08EBBBD
:10EA5000E9D08091E10083FF21C08091E20083FF33
:10EA60001DC08091E100877F8093E10082E08EBB32
:10EA700010926F018091E1008E7F8093E100809180
:10EA8000E2008E7F8093E2008091E20080618093BB
:10EA9000E20042E260E080E0BDDEC4D0FF91EF9191
:10EAA000BF91AF919F918F917F916F915F914F91A6
:10EAB0003F912F910F900BBE0F900FBE0F901F90A4
:10EAC00018950F931F93CF93DF9300D0CDB7DEB788
:10EAD000E1E7F1E088E08E0F9091F10091938E13C1
:10EAE000FBCF80917101E09172014E2F50E04A30CE
:10EAF000510508F08EC0FA01E45BFF40F5C08D7F40
:10EB0000803809F086C076C08D7F09F473C081C05B
:10EB100081117FC080917301182F1F770FB7F89470
:10EB20008091E800877F8093E80085DE8091E8008F
:10EB300080FFFCCF111102C082E001C083E08EBBD8
:10EB40008091E3008078812B8093E3008091E30043
:10EB500080688093E3000FBF4DC08058823008F07A
:10EB600058C0AE014F5F5F4F609175018091730196
:10EB70009091740124DEBC01892B09F43BC0909173
:10EB8000E800977F9093E80089819A814CD080912A
:10EB9000E8008B7F8093E8002DC08038D1F580910C
:10EBA000E800877F8093E80080916F018093F100F7
:10EBB0008091E8008E7F8093E8003DDE1BC08111CC
:10EBC00028C0909173019230A8F48091E800877F6B
:10EBD0008093E80090936F012EDE80916F01811188
:10EBE00006C08091E30087FD02C081E001C084E09F
:10EBF0008EBB18D08091E80083FF0DC08091EB00A0
:10EC000080628093EB008091E800877F8093E8002A
:10EC100002C0DBDBEFCF0F900F90DF91CF911F9100
:10EC20000F9108950895209177013091780126176A
:10EC3000370748F06115710539F42091E8002E7FFF
:10EC40002093E80001C0B90140E06115710581F130
:10EC50002EB32223E9F12530E9F12091E80023FDCC
:10EC600035C02091E80022FD2BC02091E80020FF54
:10EC7000ECCF2091F2003091F300FC01CF0161153F
:10EC8000710559F02032310540F481918093F100F3
:10EC9000615071092F5F3F4FF1CF41E020323105C4
:10ECA00009F040E02091E8002E7F2093E800CDCFCE
:10ECB0004111CECF05C08EB3882351F0853051F07D
:10ECC0008091E80082FFF7CF80E0089581E0089509
:10ECD00082E0089583E008958EB3882321F0809127
:10ECE000E80083FDEECE0895EE0FFF1F0024001C08
:10ECF0000BBE0790F691E02D0994F999FECF92BDD5
:10ED000081BDF89A992780B50895262FF999FECFED
:10ED10001FBA92BD81BD20BD0FB6F894FA9AF99A38
:0AED20000FBE01960895F894FFCF8E
:10ED2A00020126034100560052002000440046001A
:10ED3A005500200042006F006F0074006C006F00E5
:10ED4A0061006400650072000000040309040902FE
:10ED5A001B0001010080320904000000FE010200CC
:10ED6A000921030000000C0001120110010000003B
:0CED7A0020EB03FB2F0000000100010053
:040000031000E00009
:00000001FF
