:100000000C94F3000C941B010C941B010C941B0129
:100010000C941B010C941B010C941B010C941B01F0
:100020000C941B010C941B010C9422020C94ED0205
:100030000C941B010C941B010C941B010C941B01D0
:100040000C941B010C941B010C941B010C941B01C0
:100050000C941B010C941B010C941B010C940A06BC
:100060000C941B010C941B010C941B010C941B01A0
:100070000C941B010C941B010C941B010C941B0190
:100080000C941B010C941B010C941B010C941B0180
:100090000C941B010C941B010C941B010C941B0170
:1000A0000C941B010C941B010C941B01EA06ED0639
:1000B000DC06E006E6060E070E070E07F106F5065B
:1000C000F906FF0603070E070907080B00020202E4
:1000D00001000904000001020200000524001001D3
:1000E0000524010101042402060524060001070578
:1000F000810310004009040100020A000000070506
:1001000002024000000705830240000004030904C6
:1001100041726475696E6F204C4C43004172647586
:10012000696E6F204C656F6E6172646F0012010022
:100130000200000040412336800001010203011249
:10014000010002EF02014041233680000101020359
:1001500001070605040100080A0B0C0D0900000048
:1001600000240027002A002D003000000000002598
:100170000028002B002E0031000000000023002684
:100180000029002C002F00040404040403040502C9
:100190000202020403020202020606060606060422
:1001A00004020202040404080201104080401020EE
:1001B000408040800802040180402010020110802D
:1001C00010204040200000000200090F000003043E
:1001D00001000C0000000000000000000000000012
:1001E000000000007A1211241FBECFEFDAE0DEBF5C
:1001F000CDBF22E0AAE3B1E001C01D92A539B2074C
:10020000E1F711E0A0E0B1E0E6EDFEE202C005900A
:100210000D92AA33B107D9F710E0C3EFD0E004C0C4
:100220002197FE010E948814C23FD107C9F70E949E
:10023000640C0C9469170C940000FC01848595856E
:1002400097FD0BC09FB7F89482E08093E9008091FE
:10025000F2009FBF90E0019608959FB7F89482E066
:100260008093E9008091F2009FBF90E00895409153
:1002700046015091470120914401309145014217B8
:100280005307B4F49091E8009570E1F39091E80081
:1002900092FD19C08093F100809146019091470131
:1002A00001968F739927892B19F48EEF8093E800BC
:1002B0008091460190914701019690934701809368
:1002C000460181E0089580E00895CF92DF92EF9299
:1002D000FF920F931F93CF93DF931F92CDB7DEB79B
:1002E000182F062FE42E862F880F8E5F99830E9489
:1002F000370183E00E943701F12EC12E9981D92E5A
:100300008C2D8F19801798F4F601E7FE02C08491B6
:1003100001C080810E943701182F80E00E943701C0
:100320008123FFEFCF1ADF0A8111EACF01C081E0FC
:100330000F90DF91CF911F910F91FF90EF90DF9081
:10034000CF900895615030F02091F100FC0120839E
:100350000196F8CF289884E680934C0108953FB722
:10036000F89480913F0190914001A0914101B0919A
:10037000420126B5A89B05C02F3F19F00196A11D8B
:10038000B11D3FBFBA2FA92F982F8827820F911D2B
:10039000A11DB11DBC01CD0142E0660F771F881F72
:1003A000991F4A95D1F708952FB7F89460913B01B2
:1003B00070913C0180913D0190913E012FBF0895C5
:1003C000CF93DF931F92CDB7DEB7FC01848595856F
:1003D00097FD05C02FEF3FEF358724870BC0CE0177
:1003E00001960E940508019719F4898190E002C0E6
:1003F0008FEF9FEF0F90DF91CF9108950F931F9391
:10040000CF93DF931F92CDB7DEB78C01FC018485BB
:10041000958597FF0EC0CE0101960E9405080197B1
:1004200019F4298130E002C02FEF3FEFF801358742
:100430002487F801848595850F90DF91CF911F91D6
:100440000F9108951F920F920FB60F9211248F9360
:100450009F938091E1009091E100937F9093E10060
:1004600083FF0FC01092E90091E09093EB0010928F
:10047000EC0092E39093ED0010924D0198E0909380
:10048000F00082FF20C093E09093E9009091F20089
:10049000992319F09AE39093E80090914B019923E6
:1004A00039F090914B01915090934B01992389F130
:1004B00090914C01992339F090914C019150909377
:1004C0004C01992341F184FF10C08091E2008E7E9F
:1004D00081608093E2008091E1008F7E8093E10053
:1004E00080914A018E7E806111C080FF16C080918C
:1004F000E2008E7E80618093E2008091E1008E7E3A
:100500008093E10080914A018E7E816080934A0150
:1005100004C05D9ACDCF289AD6CF9F918F910F902E
:100520000FBE0F901F901895DF92EF92FF920F93DE
:100530001F93CF93DF93D82E8A017B01E40EF51E23
:10054000EB01CE15DF0571F0D7FE03C0FE018491EB
:1005500001C088810E94370121968111F2CF8FEF6F
:100560009FEF01C0C801DF91CF911F910F91FF90C4
:10057000EF90DF9008950F931F93CF93DF931F9217
:10058000CDB7DEB782E0898342E450E06AEC70E0E8
:1005900080E80E9494020E942E09DC0112960D91BF
:1005A0001C9113970115110569F0D801ED91FC918B
:1005B0000280F381E02DBE016F5F7F4FC801099576
:1005C00097FF07C089810F90DF91CF911F910F9105
:1005D0000895F80100851185E5CF1F920F920FB69F
:1005E0000F921124CF92DF92EF92FF920F931F93FD
:1005F0002F933F934F935F936F937F938F939F932B
:10060000AF93BF93EF93FF93CF93DF93CDB7DEB755
:100610006C97DEBFCDBF1092E9008091E80083FFA8
:10062000FAC168E0CE0145960E94A20182EF809354
:10063000E8008D8987FF05C09091E80090FFFCCF0E
:1006400003C09EEF9093E800982F907609F0C6C003
:100650009E892F89188D91110CC0803829F48091C2
:1006600049018093F10002C01092F1001092F10054
:1006700047C1422F50E0512B913051F4811140C1BC
:100680004130510509F03CC1809149018D7F0BC07B
:10069000933061F4811134C14130510509F030C10A
:1006A000809149018260809349012AC1953041F4CB
:1006B0008091E80080FFFCCF20682093E30020C1F8
:1006C000963009F05FC0EB8CFC8C1092E900109220
:1006D000470110924601123091F510924501109297
:1006E00044010E94BB0299E0BE016F5F7F4FDB01B6
:1006F000E92F1D92EA95E9F799831A8391E09E8389
:1007000090EA98879AEF99872091460130914701A6
:10071000275F3F4F3C832B838D831092E90010921B
:10072000470110924601F0924501E092440149E0F0
:1007300050E080E00E9494020E94BB02E1C0F0926F
:100740004501E09244010E942E09DC011296ED90D1
:10075000FC901397E114F10409F4C0C0D701ED91A6
:10076000FC910480F581E02DBE016B5E7F4FC701D7
:100770000995009719F00CF0C3C0C6C0F701E084DA
:10078000F184E8CF973009F4BFC0983021F481E0BC
:100790008093F100B5C0993009F0B2C0837009F0C0
:1007A000B3C0EDE0F1E081E021E036E390819923F0
:1007B00061F08093E9002093EB0091919093EC001D
:1007C0003093ED008F5F873089F78EE78093EA00E2
:1007D0001092EA008F8980934D0192C08B8D9C8D81
:1007E0001092E90010924701109246019093450142
:1007F00080934401898D811156C08E899D89913ADB
:1008000059F4813209F080C047E050E064E071E0C3
:1008100080E00E94940274C0913209F075C0833266
:1008200089F4888D90E0982F88272F89822BA0E06B
:10083000B0E08093000190930101A0930201B09376
:1008400003015EC0803269F48091E80082FFFCCF32
:1008500067E084E091E00E94A2018BEF8093E800C2
:1008600006C0823209F04CC08F8980930B018091C1
:100870004801882319F0EEEFFAE002C0E0E0F8E06A
:100880008091040190910501A0910601B0910701AA
:10089000803B9440A105B10509F088C080910B010F
:1008A00080FFA0C083C00E942E09DC0112960D912A
:1008B0001C9113970115110539F1D801ED91FC91A7
:1008C0000190F081E02DBE016B5E7F4FC80109955C
:1008D000811116C0F80100851185ECCF1130C1F0EF
:1008E000133091F48F89882309F455C08230E9F4DC
:1008F00040E860E18CE191E00E946501882321F0ED
:100900008EEF8093E80087C081E28093EB0083C084
:100910008B8D9C8D089711F41093430180914301B6
:10092000811136C06DE271E038C0813029F440E8B1
:100930006BE080E191E0E0CF833031F70E942E0937
:10094000DC011296ED90FC9013978E010F5F1F4F04
:100950006801E114F10479F0D701ED91FC91068072
:10096000F781E02DB801C7010995080F111DF701A6
:10097000E084F184EECFD8011C92F60101900020B2
:10098000E9F73197BF016C197D0940E0C601B4CF8A
:100990006FE371E002C06CE071E06115710509F46C
:1009A000B3CFFB01449150E080E833CF0FB6F89409
:1009B000A89580916000886180936000109260002B
:1009C0000FBEA895EE3F2AE0F20739F08091FE0AAB
:1009D0009091FF0A9183808393CF1092FF0A109227
:1009E000FE0A8ECFEE3F8AE0F80731F080819181D8
:1009F0009093FF0A8093FE0A87E797E791838083AD
:100A00009BE088E10FB6F894A895809360000FBE34
:100A10009093600075CF6C960FB6F894DEBF0FBE52
:100A2000CDBFDF91CF91FF91EF91BF91AF919F919A
:100A30008F917F916F915F914F913F912F911F9176
:100A40000F91FF90EF90DF90CF900F900FBE0F901F
:100A50001F9018958F929F92AF92BF92CF92DF9284
:100A6000EF92FF926B017C010E94AF014B015C0190
:100A7000C114D104E104F104F1F00E94AF01DC01E2
:100A8000CB0188199909AA09BB09883E9340A105A1
:100A9000B10570F321E0C21AD108E108F10888EE2F
:100AA000880E83E0981EA11CB11CC114D104E1047E
:100AB000F10419F7DDCFFF90EF90DF90CF90BF905A
:100AC000AF909F908F9008958F929F92AF92BF9218
:100AD000CF92DF92EF92FF920F931F93CF93DF930A
:100AE00000D01F92CDB7DEB7382F8B0180914D011A
:100AF000811103C08FEF9FEF7DC080914A0180FF7D
:100B000005C08091E00082608093E0004A018AEF96
:100B1000F82E832F8770E82E9FE3C92E832F8072D3
:100B2000B82E2AE3D22E832F8074A82E811491042C
:100B300009F457C08FB7F894E092E9009091E8006B
:100B400095FF05C09091F2002C2D291B01C020E0DB
:100B50008FBF211110C0FA94FF2061F261E070E0B4
:100B600080E090E039834A835B830E942A053981C3
:100B70004A815B81DBCF822F90E0881699060CF4C6
:100B8000282D6FB7F894E092E9008091E80085FF86
:100B900026C0822F90E0881A990ABB2029F02150A4
:100BA000A8F01092F100FBCFF80137FF07C02150E9
:100BB00058F074917093F1003196F9CF215020F0E4
:100BC00071917093F100FACF080F191F8091E8001E
:100BD00085FF0DC08114910411F4A11008C06FBFEE
:100BE000A5CF5D9884E680934B01CA0103C0D092E3
:100BF000E800F5CF0F900F900F90DF91CF911F91EC
:100C00000F91FF90EF90DF90CF90BF90AF909F90AB
:100C10008F9008951F920F920FB60F9211242F9369
:100C20003F938F939F93AF93BF9380913B0190919C
:100C30003C01A0913D01B0913E0130913A0123E089
:100C4000230F2D3720F40196A11DB11D05C026E804
:100C5000230F0296A11DB11D20933A0180933B0101
:100C600090933C01A0933D01B0933E0180913F01E0
:100C700090914001A0914101B09142010196A11DC6
:100C8000B11D80933F0190934001A0934101B09327
:100C90004201BF91AF919F918F913F912F910F9002
:100CA0000FBE0F901F901895DC01FB0112968C91DE
:100CB000129790E02481358182179307D1F49181B6
:100CC0008081813A31F481E0913091F0933089F460
:100CD00011C0813271F49B3021F482811F968C9374
:100CE00005C09A3031F4828150968C9381E008954A
:100CF000089580E00895DC01FB0188E4808389E4A5
:100D0000818384E482831D969C911D979F709F5BD5
:100D100093831D968D919C911E9724E096958795BF
:100D20002A95E1F78F708F5B848385E00895CF92D9
:100D3000DF92EF92FF920F931F93CF93DF93FA010D
:100D4000E9016B01770FEE08FF08092E000CAA0BD2
:100D5000BB0B9C01AD012C193D094E095F09AEEF9B
:100D6000BFEF0E942D178F01FF0F220B330BA9013C
:100D700098012C193D094E095F090E940E17DA01EE
:100D8000C9018F5F9F47A109B1098883998382E0D8
:100D900090E0DF91CF911F910F91FF90EF90DF9046
:100DA000CF90089590E0FC013197EF30F105B0F558
:100DB000EA5AFF4F0C948814809180008F7703C00B
:100DC000809180008F7D80938000089580918000C5
:100DD000877FF9CF84B58F7702C084B58F7D84BDBE
:100DE0000895809190008F7707C0809190008F7D4B
:100DF00003C080919000877F809390000895809138
:100E0000C0008F7703C08091C0008F7D8093C000A9
:100E100008958091C200877F8093C2000895CF9289
:100E2000DF92EF92FF920F931F93CF93DF936C01AA
:100E30007A018B01C0E0D0E0CE15DF0589F0D80142
:100E40006D918D01D601ED91FC910190F081E02D25
:100E5000C6010995892B11F47E0102C02196ECCFC1
:100E6000C701DF91CF911F910F91FF90EF90DF901D
:100E7000CF900895FC0182818F5BFB01808381E02C
:100E80000895CF93DF931F92CDB7DEB76983DC015E
:100E9000ED91FC910280F381E02D41E050E0BE0134
:100EA0006F5F7F4F09950F90DF91CF91089583E099
:100EB0008093E9008091F200882319F08AE38093FF
:100EC000E8000895CF93DF93EC0180910B01882314
:100ED00031F083E00E9464051816190634F081E0B1
:100EE00090E09B838A8380E090E0DF91CF9108952A
:100EF000EF92FF920F931F93CF93DF93FB0120811B
:100F0000213869F52381223251F5DC0112962C91AA
:100F100030E0448155814217530709F58C01FC01EB
:100F2000C385D485E12CF12C209799F04C815D810B
:100F30006A817B818E81811180E80E9494028F3FBB
:100F4000FFEF9F0779F0E80EF91E0990D881C02DB8
:100F5000EBCF81E0D8011F968C93C70105C080E0DC
:100F600090E002C08FEF9FEFDF91CF911F910F9123
:100F7000FF90EF900895CF93DF93CDB7DEB76997D9
:100F80000FB6F894DEBF0FBECDBFFC01DB018C9124
:100F90008F5F8C93BE016F5F7F4F89E1DB011D92F4
:100FA0008A95E9F729E0298384E08A8391E09D838B
:100FB00083E08E832A8721E22B879C879D879F87EA
:100FC00022E2288B27E02B8B25E02C8B8E8B20E4D4
:100FD00030E0388F2F8B998F82818B839585868522
:100FE000998B8A8B838180688D8B49E150E080E00A
:100FF0000E94940269960FB6F894DEBF0FBECDBF73
:10100000DF91CF9108950E94F316FC0180914D016C
:10101000811103C08FEF9FEF08959FB7F89482E08E
:101020008093E9002091F20030E01216130614F4C8
:1010300021E030E02115310559F0289884E68093AD
:101040004C018091F10080838091F200882319F097
:101050009FBFC90108958BE68093E800F9CFCF9335
:10106000DF93282F30E0F901EB53FE4F8491F90113
:10107000EA55FE4FD491F901E957FE4FC491CC23B4
:1010800091F081110E94D206EC2FF0E0EE0FFF1FCD
:10109000E758FE4FA591B491EC91ED2381E090E0EB
:1010A00021F480E002C080E090E0DF91CF910895CC
:1010B0001F93CF93DF93282F30E0F901EB53FE4FBE
:1010C0008491F901EA55FE4FD491F901E957FE4F99
:1010D000C491CC23C9F0162F81110E94D206EC2FA7
:1010E000F0E0EE0FFF1FE559FE4FA591B4918FB7C9
:1010F000F894111105C09C91ED2FE095E92302C0F1
:10110000EC91ED2BEC938FBFDF91CF911F91089560
:10111000CF93DF9361E087E00E945808C4E0D0E0FD
:1011200064EF71E080E090E00E942A0560E087E0D3
:101130000E94580864EF71E080E090E00E942A0568
:1011400061E087E00E945808219751F7DF91CF9125
:101150000895CF93DF9390E0FC01EA55FE4F249170
:10116000FC01E957FE4F8491882361F190E0880FDC
:10117000991FFC01E35AFE4FC591D491FC01E5593A
:10118000FE4FA591B491611109C09FB7F894888171
:10119000209582238883EC912E230BC0623061F46A
:1011A0009FB7F8943881822F809583238883EC91B0
:1011B0002E2B2C939FBF06C08FB7F894E8812E2B5F
:1011C00028838FBFDF91CF910895823108F082513B
:1011D000E82FF0E0EF5AFE4FE49180917B00E3FBB3
:1011E000222720F930E095E0220F331F9A95E1F78E
:1011F0008F7D282B20937B00E770E064E0937C00D8
:1012000080917A00806480937A0080917A0086FDD4
:10121000FCCF809178002091790090E0922B089586
:101220000F931F93CF93DF931F92CDB7DEB78C013F
:1012300069830E94F8166981681741F0C8010F9010
:10124000DF91CF911F910F910C9400170F90DF91B8
:10125000CF911F910F9108950C94F816809152012F
:1012600081110DC082E080934E0184E080934F0194
:10127000109251011092500181E0809352018EE44E
:1012800091E0089580916B0181116BC081E08093A2
:101290005E0180935F0124E631E030936101209389
:1012A0006001109263011092620121E231E03093FB
:1012B0005B0120935A011092660110926501109211
:1012C0006801109267018093690180936A0181EC43
:1012D000809364010E942E09FC01218180915E01AE
:1012E00090E0820F911D089724F081E080936B01BC
:1012F00038C0A281B381109729F48AE591E09383E5
:1013000082830EC018968D919C911997009711F0C9
:10131000DC01F8CF8AE591E019969C938E9318979B
:10132000808180935C01818180935D0190818091B7
:101330005F01890F808380E090915E018917A8F694
:10134000A0916001B0916101A80FB11D9C91A18194
:10135000B0E0A45FBE4F9C9391819F5F91838F5FAC
:10136000EBCF8AE591E008954F925F926F927F9262
:101370008F929F92AF92BF92CF92DF92EF92FF92A5
:101380000F931F93CF93DF931F92CDB7DEB7CDB6E8
:10139000DEB68091C2012DB73EB7281B31090FB6CA
:1013A000F8943EBF0FBE2DBF0DB71EB70F5F1F4F86
:1013B000E0909101F12C80918D0190918E01D801E6
:1013C000FC019F01281B390B2E153F051CF42191B0
:1013D0002D93F7CF80919201882371F1809189013B
:1013E00090918A0197FD0AC068E671E00E9474142A
:1013F0006DE270E00E947414262F01C028E08091F5
:101400008B0190918C0197FD0AC068E671E00E9403
:1014100074146DE270E00E947414962F01C098E07D
:10142000F801EE0DFF1D30E1939FC0011124822BC6
:101430008083C70101967C014091970150919801EA
:101440006091950170919601809173019091740162
:101450002091930120FF06C098012E0D3F1D0E9490
:10146000970602C080E090E0E80EF91E40919B01D3
:1014700050919C016091990170919A018091750140
:10148000909176012091930121FF06C098012E0DC5
:101490003F1D0E94970602C080E090E0E80EF91E12
:1014A00040919F015091A00160919D0170919E011A
:1014B00080917701909178012091930122FF06C0DD
:1014C00098012E0D3F1D0E94970602C080E090E01B
:1014D000E80EF91E4091A3015091A4016091A10171
:1014E0007091A2018091790190917A0120919301EC
:1014F00023FF06C098012E0D3F1D0E94970602C0D3
:1015000080E090E0E80EF91E4091A7015091A801FB
:101510006091A5017091A60180917B0190917C0161
:101520002091930124FF06C098012E0D3F1D0E94BB
:10153000970602C080E090E0E80EF91E4091AB01F2
:101540005091AC016091A9017091AA0180917D0137
:1015500090917E012091930125FF06C098012E0DE8
:101560003F1D0E94970602C080E090E0E80EF91E41
:10157000E091AF01F091B0014090AD015090AE010B
:101580002091810130918201B0909401B0FE2AC077
:10159000052C000C66087708C901330FAA0BBB0B9A
:1015A0009C01AD012419350946095709AEEFBFEF7B
:1015B0000E942D179F01FF0F440B550B241935096D
:1015C000460957090E940E17DA01C9018F5F9F472C
:1015D000A109B109F801EE0DFF1D8083918382E01E
:1015E00090E002C080E090E0E80EF91EE091B301C7
:1015F000F091B4014090B1015090B20120917F016F
:1016000030918001B1FE2AC0052C000C66087708D5
:10161000C901330FAA0BBB0B9C01AD01241935097D
:1016200046095709AEEFBFEF0E942D179F01FF0F2C
:10163000440B550B24193509460957090E940E170A
:10164000DA01C9018F5F9F47A109B109F801EE0DC9
:10165000FF1D8083918382E090E002C080E090E0F3
:10166000E80EF91EE091B701F091B8014090B50184
:101670005090B6012091830130918401B2FE2AC0BE
:10168000052C000C66087708C901330FAA0BBB0BA9
:101690009C01AD012419350946095709AEEFBFEF8A
:1016A0000E942D179F01FF0F440B550B241935097C
:1016B000460957090E940E17DA01C9018F5F9F473B
:1016C000A109B109F801EE0DFF1D8083918382E02D
:1016D00090E002C080E090E0E80EF91EE091BB01CE
:1016E000F091BC014090B9015090BA012091850160
:1016F00030918601B3FE2AC0052C000C66087708DD
:10170000C901330FAA0BBB0B9C01AD01241935098C
:1017100046095709AEEFBFEF0E942D179F01FF0F3B
:10172000440B550B24193509460957090E940E1719
:10173000DA01C9018F5F9F47A109B109F801EE0DD8
:10174000FF1D8083918382E090E002C080E090E002
:10175000E091BF01F091C0018090BD019090BE0169
:101760002091870130918801B4FE2BC0E80EF91E4C
:10177000092C000CAA08BB08C901330FAA0BBB0B2C
:101780009C01AD01281939094A095B09AEEFBFEF89
:101790000E942D172F01FF0F66087708A301920101
:1017A000281939094A095B090E940E17DA01C90193
:1017B0008F5F9F47A109B109F801EE0DFF1D8083DE
:1017C0009183F090C201E090C1010E9442095C0146
:1017D000E98241E050E0BE016F5F7F4FFC018381F1
:1017E0000E94640597FD08C04F2D50E0F5018381EC
:1017F000B80180640E9464050FB6F894DEBE0FBE87
:10180000CDBE0F90DF91CF911F910F91FF90EF9080
:10181000DF90CF90BF90AF909F908F907F906F9010
:101820005F904F9008950F931F93909190016111D5
:1018300029C0891708F045C0982F969596959695DA
:10184000E0918D01F0918E01E90FF11D877041E06B
:1018500050E060E070E08A019B0104C0000F111F9E
:10186000221F331F8A95D2F7D901C8018095908134
:101870008923808380918F01882319F11F910F9113
:101880000C94B4098917E8F4982F96959695969537
:10189000E0918D01F0918E01E90FF11D877041E01B
:1018A00050E060E070E08A019B0104C0000F111F4E
:1018B000221F331F8A95D2F7D901C8012081822BBC
:1018C000D8CF1F910F910895CF93DF9300D000D010
:1018D000CDB7DEB7789484B5826084BD84B581606D
:1018E00084BD85B5826085BD85B5816085BD8091EB
:1018F0006E00816080936E00109281008091810063
:10190000826080938100809181008160809381005A
:10191000809180008160809380008091910082603E
:1019200080939100809191008160809391008091DB
:1019300090008160809390008091C10084608093CA
:10194000C1008091C10082608093C1008091C1007C
:1019500081608093C1008091C30081608093C30047
:101960008091C00082608093C0008091C20081603D
:101970008093C20080917A00846080937A00809185
:101980007A00826080937A0080917A0081608093EF
:101990007A0080917A00806880937A0010924D01DD
:1019A0001092490110924A018091D7008160809382
:1019B000D70080EA8093D80089B5806189BD89B558
:1019C000826089BD09B400FEFDCF61E070E080E077
:1019D00090E00E942A058091D8008F7C80618093DE
:1019E000D8008091E000807F8093E0008091E1004A
:1019F0008E7E8093E1008DE08093E200559A209ADC
:101A0000EEEFFFE7859194918B3F9C4D19F481E0B7
:101A10008093480161E087E00E94A90862E082E0CB
:101A20000E94A90862E084E00E94A90862E083E0C5
:101A30000E94A90862E08BE00E94A90862E085E0AC
:101A40000E94A90862E08DE00E94A90862E08AE095
:101A50000E94A90862E089E00E94A90862E086E08D
:101A60000E94A90862E08CE00E94A90862E088E078
:101A70000E94A90861E082E10E9458080E94D401F6
:101A80000E9414154B015C010E94D4010E941415A0
:101A90006B017C0120E030E84BE355E4C501B40163
:101AA0000E94A3149B01AC01C701B6010E940F154F
:101AB00087FF39C085E00E942F08892B29F78DE028
:101AC0000E942F08892B01F78AE00E942F08892B9A
:101AD000D9F6F2E3EF2EF12C84E10E94E5089A8317
:101AE000898385E10E94E5088C0131E0E31AF10861
:101AF00099F70E94880829803A8083E6281A3108DD
:101B0000E980FA8093E6E90EF11C84E10E94E50881
:101B1000821593050CF447C384E10E94E508E8169A
:101B2000F9069CF740C38CE090E00E942C098A30B3
:101B300009F081C080E090E00E942C09082F81E02C
:101B400090E00E942C0910E0102F0027082B109322
:101B5000D8010093D70182E090E00E942C09F82E72
:101B600083E090E00E942C092F2D30E0322F2227B5
:101B7000282B3093D6012093D50184E090E00E9479
:101B80002C09F82E85E090E00E942C092F2D30E0E2
:101B9000322F22276901C82AD092C601C092C501FE
:101BA00086E090E00E942C09F82E87E090E00E94E9
:101BB0002C092F2D30E0322F2227282B3093DC01E7
:101BC0002093DB0188E090E00E942C09F82E89E048
:101BD00090E00E942C092F2D30E0322F2227282B55
:101BE0003093DA012093D9018AE090E00E942C0919
:101BF000F82E8BE090E00E942C092F2D30E0322F40
:101C00002227282B3093C8012093C701C8018C19C3
:101C10009D0997FF03C0919581959109813092406C
:101C20001CF080E092E002C080E091E09093FE0121
:101C30008093FD01C9C085E10E94E5087C0184E133
:101C40000E94E508E0E0F4E0EE19FF091E161F0609
:101C500014F0F701F45060E074E0681B790B16167D
:101C6000170614F0BC01745040E052E04E195F09B1
:101C70001416150614F0A701525020E032E0281B7C
:101C8000390B1216130614F09C01325000E011E0DB
:101C90000E191F091016110614F087011A95A0E0FD
:101CA000B1E0A81BB90B1A161B0614F0DC01BA959B
:101CB0000417150734F4A217B30794F480E091E0F9
:101CC0000BC04E175F0734F4261737074CF480E03B
:101CD00092E002C080E094E09093FE018093FD01C9
:101CE0008091C3019091C401019709F46DC087E10F
:101CF0000E94E5087C0186E10E94E508E0E0F4E04E
:101D0000EE19FF091E161F0614F0F701F45060E0EB
:101D100074E0681B790B1616170614F0BC0174509A
:101D200040E052E04E195F091416150614F0A701A1
:101D3000525020E032E0281B390B1216130614F023
:101D40009C01325000E011E00E191F091016110617
:101D500014F087011A95A0E0B1E0A81BB90B1A1680
:101D60001B0614F0DC01BA950417150734F4A2170A
:101D7000B30794F480E091E00BC04E175F0734F492
:101D8000261737074CF480E092E002C080E094E030
:101D9000909300028093FF0186E990E09093D60132
:101DA0008093D5018EE690E09093DA018093D9017B
:101DB0008AE693E09093D8018093D70182E993E07B
:101DC0009093DC018093DB018091FD019091FE01F5
:101DD00022273327281B390B309396012093950136
:101DE000909398018093970130939A0120939901E1
:101DF00090939C0180939B018091FF019091000240
:101E000022273327281B390B3093A2012093A101ED
:101E10009093A4018093A3013093A6012093A50180
:101E20009093A8018093A70110928F010E94B4099A
:101E300080E0282E80E0382E82E00E942F0861E0AA
:101E4000892B09F060E080E00E94130C84E00E947E
:101E50002F0861E0892B09F060E081E00E94130CFB
:101E600083E00E942F0861E0892B09F060E082E0A6
:101E70000E94130C8BE00E942F0861E0892B09F06F
:101E800060E083E00E94130C85E00E942F0861E06F
:101E9000892B09F060E084E00E94130C8DE00E9421
:101EA0002F0861E0892B09F060E085E00E94130CA7
:101EB0008AE00E942F0861E0892B09F060E086E04B
:101EC0000E94130C89E00E942F0861E0892B09F021
:101ED00060E087E00E94130C88E00E942F0861E018
:101EE000892B09F060E088E00E94130C82E10E94D7
:101EF0002F0861E0892B09F060E089E00E94130C53
:101F000086E00E942F0861E0892B09F060E08AE0FA
:101F10000E94130C8CE00E942F0861E0892B09F0CD
:101F200060E08BE00E94130C0091FD011091FE0116
:101F300088249924801A910A092C000CAA08BB084D
:101F4000C090D701D090D8010D2C000CEE08FF08EE
:101F50004090D5015090D601052C000C66087708FA
:101F600085E10E94E508092E000CAA0BBB0B9C0121
:101F7000AD012419350946095709C801110FAA0BEB
:101F8000BB0BBC01CD01681979098A099B090E9424
:101F90006414A701960124193509460957090E94BE
:101FA0000E17DA01C901880D991DAA1DBB1D898371
:101FB0009A83AB83BC830091FD011091FE018824BC
:101FC0009924801A910A092C000CAA08BB08C09019
:101FD000DB01D090DC010D2C000CEE08FF084090D6
:101FE000D9015090DA01052C000C6608770884E1CD
:101FF0000E94E508092E000CAA0BBB0B9C01AD0149
:102000002419350946095709C801110FAA0BBB0B42
:10201000BC01CD01681979098A099B090E946414E1
:10202000A701960124193509460957090E940E1780
:10203000820E931EA41EB51E87E10E94E508209122
:10204000CD013091CE017C01E21AF30A86E10E94B3
:10205000E5082091CF013091D0018C01021B130BB8
:1020600089819A810496099718F089819A8102C022
:1020700080E090E094012C5F3F4F2930310510F44F
:10208000812C912C97012C5F3F4F2930310510F4A2
:10209000E12CF12C98012C5F3F4F2930310510F4D1
:1020A00000E010E02091C3013091C401A90141502A
:1020B00051094230510520F42130310529F008C082
:1020C000812C912C80E090E000E010E0E12CF12CDC
:1020D00020919501309196018217930784F0209109
:1020E000970130919801281739074CF090937401AB
:1020F0008093730180918F0181110E94B4098091B6
:10210000990190919A018816990684F080919B011B
:1021100090919C01881599054CF0909276018092DF
:10212000750180918F0181110E94B4098091A101F4
:102130009091A201E816F90684F08091A301909194
:10214000A4018E159F054CF0F0927A01E09279017E
:1021500080918F0181110E94B4098091A501909115
:10216000A6010817190784F08091A7019091A80192
:10217000801791074CF010937C0100937B018091B4
:102180008F0181110E94B4090E94B4096FE070E0D0
:1021900080E090E00E942A052114310409F44CCE1D
:1021A0000E94000049CE60E087E00E9458080E942B
:1021B000D4010E9414156B017C010E94D4010E947D
:1021C00014152B013C0120E030E04AE754E4C7013C
:1021D000B6010E94A3149B01AC01C301B2010E948D
:1021E0000F1587FF27C084E10E94E508A981BA8105
:1021F000A817B90764F42091DB013091DC0128179E
:102200003907DCF69093DC018093DB01D6CFE981BE
:10221000FA818E179F078CF62091D9013091DA014F
:102220008217930714F0232B41F69093DA018093E1
:10223000D901C3CF0E948808E980FA80F3E6EF0E47
:10224000F11C84E10E94E5088215930534F084E1D5
:102250000E94E508E816F906A4F760E087E00E940E
:1022600058080E94D4010E9414156B017C010E9441
:10227000D4010E9414152B013C0120E030E04AE714
:1022800054E4C701B6010E94A3149B01AC01C30131
:10229000B2010E940F1587FF27C084E10E94E50864
:1022A00029813A812817390764F42091DB013091A4
:1022B000DC0128173907DCF69093DC018093DB0101
:1022C000D6CFA981BA818A179B078CF62091D901B4
:1022D0003091DA018217930714F0232B41F6909383
:1022E000DA018093D901C3CF0E9488081801B3E6B0
:1022F0002B1A31087801E3E6EE0EF11C85E10E940D
:10230000E5088215930534F085E10E94E508E8169A
:10231000F906A4F760E087E00E9458080E94D40103
:102320000E9414156B017C010E94D4010E941415B7
:102330002B013C0120E030E04AE754E4C701B6013C
:102340000E94A3149B01AC01C301B2010E940F15AE
:1023500087FF23C085E10E94E5080817190764F488
:102360002091D7013091D80128173907ECF69093C6
:10237000D8018093D701D8CF80179107ACF6209170
:10238000D5013091D6018217930714F0232B61F603
:102390009093D6018093D501C7CF0E948808780119
:1023A000F3E6EF0EF11C85E10E94E5088215930526
:1023B00034F085E10E94E508E816F906A4F760E02C
:1023C00087E00E9458080E94D4010E9414156B01F6
:1023D0007C010E94D4010E9414152B013C0120E0D5
:1023E00030E04AE754E4C701B6010E94A3149B0100
:1023F000AC01C301B2010E940F1587FF23C085E124
:102400000E94E5080817190764F42091D70130915C
:10241000D80128173907ECF69093D8018093D7019B
:10242000D8CF80179107ACF62091D5013091D60115
:102430008217930714F0232B61F69093D6018093B3
:10244000D501C7CF61E087E00E94580864EF71E0D2
:1024500080E090E00E942A0560E087E00E94580832
:102460006091D80180E090E00E9410096091D7014E
:1024700081E090E00E9410096091D60182E090E036
:102480000E9410096091D50183E090E00E9410093C
:10249000612F84E090E00E941009602F85E090E0B9
:1024A0000E9410096091DC0186E090E00E94100912
:1024B0006091DB0187E090E00E9410096091DA01F1
:1024C00088E090E00E9410096091D90189E090E0D5
:1024D0000E9410096A818AE090E00E9410096981D7
:1024E0008BE090E00E9410096AE08CE090E00E948E
:1024F0001009CACAEF92FF920F931F93CF93DF93F5
:10250000CDB7DEB7C659D1090FB6F894DEBF0FBEFE
:10251000CDBF10928E0110928D01109291011092F8
:102520009601109295018FEF93E09093980180931C
:10253000970110929A011092990190939C018093B7
:102540009B0110929E0110929D019093A001809397
:102550009F011092A2011092A1019093A401809377
:10256000A3011092A6011092A5019093A801809357
:10257000A7011092AA011092A9019093AC01809337
:10258000AB011092AE011092AD019093B001809317
:10259000AF011092B2011092B1019093B4018093F7
:1025A000B3011092B6011092B5019093B8018093D7
:1025B000B7011092BA011092B9019093BC018093B7
:1025C000BB011092BE011092BD019093C001809397
:1025D000BF0163E06093C1013CE030939001109231
:1025E00092018BE1809393011092940125E029835D
:1025F00081E08A8399E09B832C83E1EAED838E83DB
:1026000045E84F83688729879A8749E14B878C87FC
:1026100049E24D873E8745E14F87188A45E2498B5D
:102620008A8B55E75B8B8C8B45E94D8B3E8B35E573
:102630003F8B188E35E6398F1A8E31E83B8F72E06A
:102640007C8F5D8F8E8F4F8FF4E0F8A339A36AA340
:102650002BA38CA39DA38EA326E12FA388A780E89C
:1026600089A786E28AA78FEF8BA78FE78CA75DA744
:1026700080E18EA74FA7F8ABE9AB1AAA9BAB80E32A
:102680008CAB9DAB81E38EAB9FAB83E388AF99AFFF
:1026900084E38AAF3BAF7CAF80EC8DAF8EAF8EE32F
:1026A00090E00E94C6157C018EE3FE013196D701B1
:1026B00001900D928A95E1F787E090E00E94C6159F
:1026C0008C01DC0111961C921E921396FC92EE92E4
:1026D00012978EE390E015969C938E93149716961E
:1026E0001C920E944209FC01A385B485109719F43D
:1026F0001487038709C08D919C911197009711F061
:10270000DC01F9CF0D931C9325853685D8011496ED
:102710008D919C911597820F931F96878587909135
:102720009001892F869586958695977009F08F5F21
:102730008093910110919101812F90E00E94C61524
:1027400090938E0180938D01185F81E090919201AA
:10275000911101C080E0810F8093C2011092740139
:102760001092730110927601109275011092780107
:102770001092770110927A011092790110927C01E7
:1027800010927B0110927E0110927D0110928001C7
:1027900010927F01109282011092810110928401A7
:1027A0001092830110928601109285011092880187
:1027B000109287018FEF9FEF90938A018093890198
:1027C00090938C0180938B0180E090E020919101A7
:1027D00030E0821793074CF4E0918D01F0918E0167
:1027E000E80FF91F10820196F1CF10924402109267
:1027F000430288EE93E0A0E0B0E08093450290931E
:102800004602A0934702B09348028DE291E0909374
:102810004202809341028FEF9FEF90934E0280938C
:102820004D0281E090E09093C4018093C301109227
:10283000D6011092D5011092D8011092D7011092B2
:10284000DA011092D9011092DC011092DB01109292
:10285000DE011092DD011092E0011092DF01109272
:10286000E2011092E1011092E4011092E301109252
:10287000F6011092F5011092F8011092F7011092F2
:10288000FA011092F9011092FC011092FB011092D2
:10289000FE011092FD01109200021092FF0180E4EF
:1028A000E1E0F2E0DF011D928A95E9F7CA56DF4FB9
:1028B0000FB6F894DEBF0FBECDBFDF91CF911F9151
:1028C0000F91FF90EF900895DB018F939F930E94EB
:1028D0002D17BF91AF91A29F800D911DA39F900DC9
:1028E000B29F900D1124089597FB072E16F40094C3
:1028F00007D077FD09D00E948E1407FC05D03EF466
:10290000909581959F4F0895709561957F4F08959B
:10291000EE0FFF1F0590F491E02D0994AA1BBB1B3D
:1029200051E107C0AA1FBB1FA617B70710F0A61BCF
:10293000B70B881F991F5A95A9F780959095BC01F0
:10294000CD0108955058BB27AA270E94BA140C94B1
:102950008C150E947E1538F00E94851520F039F400
:102960009F3F19F426F40C947B150EF4E095E7FBD9
:102970000C947515E92F0E949D1558F3BA1762073C
:1029800073078407950720F079F4A6F50C94BF151A
:102990000EF4E0950B2EBA2FA02D0B01B90190017A
:1029A0000C01CA01A0011124FF27591B99F0593FBE
:1029B00050F4503E68F11A16F040A22F232F342F06
:1029C0004427585FF3CF469537952795A795F04054
:1029D0005395C9F77EF41F16BA0B620B730B840B69
:1029E000BAF09150A1F0FF0FBB1F661F771F881F21
:1029F000C2F70EC0BA0F621F731F841F48F4879579
:102A000077956795B795F7959E3F08F0B0CF93956A
:102A1000880F08F09927EE0F9795879508950E94E3
:102A2000511508F481E00895E89409C097FB3EF43D
:102A300090958095709561957F4F8F4F9F4F99230B
:102A4000A9F0F92F96E9BB279395F6958795779589
:102A50006795B795F111F8CFFAF4BB0F11F460FF49
:102A60001BC06F5F7F4F8F4F9F4F16C0882311F0A1
:102A700096E911C0772321F09EE8872F762F05C0B5
:102A8000662371F096E8862F70E060E02AF09A9550
:102A9000660F771F881FDAF7880F9695879597F945
:102AA0000895990F0008550FAA0BE0E8FEEF1616DF
:102AB0001706E807F907C0F012161306E407F50732
:102AC00098F0621B730B840B950B39F40A2661F0A6
:102AD000232B242B252B21F408950A2609F4A14049
:102AE000A6958FEF811D811D089597F99F6780E856
:102AF00070E060E008959FEF80EC089500240A9450
:102B00001616170618060906089500240A941216C8
:102B10001306140605060895092E0394000C11F4FB
:102B2000882352F0BB0F40F4BF2B11F460FF04C0A8
:102B30006F5F7F4F8F4F9F4F089557FD9058440F01
:102B4000551F59F05F3F71F04795880F97FB991F0C
:102B500061F09F3F79F087950895121613061406C9
:102B6000551FF2CF4695F1DF08C016161706180656
:102B7000991FF1CF86957105610508940895E89431
:102B8000BB2766277727CB0197F90895CF93DF936B
:102B90008230910510F482E090E0E0919302F09190
:102BA000940220E030E0C0E0D0E0309711F14081A5
:102BB000518148175907C0F04817590761F48281BD
:102BC0009381209719F09B838A832BC09093940262
:102BD0008093930226C02115310519F0421753073F
:102BE00018F49A01BE01DF01EF010280F381E02DAC
:102BF000DCCF2115310509F1281B390B24303105B3
:102C000090F412968D919C9113976115710521F0A6
:102C1000FB019383828304C0909394028093930278
:102C2000FD01329644C0FD01E20FF31F81939193A1
:102C3000225031092D933C933AC02091910230915A
:102C40009202232B41F4209115013091160130930B
:102C500092022093910220911301309114012115C9
:102C6000310541F42DB73EB740911701509118013D
:102C7000241B350BE0919102F0919202E217F307C9
:102C8000A0F42E1B3F0B2817390778F0AC014E5FDC
:102C90005F4F2417350748F04E0F5F1F5093920285
:102CA000409391028193919302C0E0E0F0E0CF0164
:102CB000DF91CF9108950F931F93CF93DF930097E8
:102CC00009F48CC0FC0132971382128200919302A6
:102CD000109194020115110581F420813181820F38
:102CE000931F20919102309192022817390779F5AC
:102CF000F0939202E093910271C0D80140E050E05D
:102D0000AE17BF0750F412962D913C911397AD0169
:102D10002115310509F1D901F3CF9D01DA01338382
:102D2000228360817181860F971F8217930769F450
:102D3000EC0128813981260F371F2E5F3F4F3183E9
:102D400020838A819B8193838283452B29F4F0938E
:102D50009402E093930242C01396FC93EE93129771
:102D6000ED01499159919E01240F351FE217F30798
:102D700071F480819181840F951F029611969C9326
:102D80008E938281938113969C938E931297E0E0A9
:102D9000F0E0D80112968D919C911397009719F04D
:102DA000F8018C01F6CF8D919C9198012E5F3F4FD9
:102DB000820F931F209191023091920228173907B8
:102DC00069F4309729F4109294021092930202C091
:102DD000138212821093920200939102DF91CF919D
:102DE0001F910F91089581E090E0F8940C94691779
:102DF000F999FECF92BD81BDF89A992780B50895C3
:102E0000262FF999FECF1FBA92BD81BD20BD0FB606
:102E1000F894FA9AF99A0FBE01960895052E97FB39
:102E20001EF400940E94251757FD07D00E94381702
:102E300007FC03D04EF40C9425175095409530951F
:102E400021953F4F4F4F5F4F089590958095709516
:102E500061957F4F8F4F9F4F08950E945A17A59FEE
:102E6000900DB49F900DA49F800D911D1124089585
:102E7000A1E21A2EAA1BBB1BFD010DC0AA1FBB1F7E
:102E8000EE1FFF1FA217B307E407F50720F0A21BF0
:102E9000B30BE40BF50B661F771F881F991F1A945D
:102EA00069F760957095809590959B01AC01BD0187
:102EB000CF010895A29FB001B39FC001A39F700DE1
:102EC000811D1124911DB29F700D811D1124911D32
:062ED0000895F894FFCF05
:102ED600FFFFFFFF00E100000000000000C180814D
:102EE60000000000009502800001000000000000C4
:102EF600005406BB0778077B060000000041076206
:0A2F0600071D01E001FE015707005E
:00000001FF
