:107000005FC0000078C0000076C0000074C00000BF
:1070100072C0000070C000006EC000006CC00000B4
:107020006AC0000068C000004CC4000064C00000DA
:1070300062C0000060C000005EC000005CC00000D4
:107040005AC0000058C0000056C0000054C00000E4
:1070500052C0000050C000004EC000004CC00000F4
:107060004AC0000048C0000046C0000044C0000004
:1070700042C0000040C000003EC000003CC0000014
:107080003AC0000038C0000036C0000034C0000024
:1070900032C0000030C000002EC000002CC0000034
:1070A0002AC0000028C0000026C000003C3D583D1A
:1070B000113E583D113E903DB53D113ED53DE73D59
:1070C00011241FBECFEFDAE0DEBFCDBF11E0A0E09C
:1070D000B1E0E4ECFDE702C005900D92AC38B107D9
:1070E000D9F721E0ACE8B1E001C01D92AD39B2079B
:1070F000E1F7D9D265C684CF84E08093E90080911E
:10710000E80085FD0DC08091E8008B778093E80052
:107110008091E80082FDF3CF8EB38111F9CF02C0D8
:107120008091F100089593E09093E9009091E80038
:1071300095FF03C08093F10008959091E8009E7739
:107140009093E8009091E80090FDF4CF9EB39111E8
:10715000F9CF089584B7877F84BF0FB6F894A895B8
:1071600080916000886180936000109260000FBE83
:1071700090E080E80FB6F8948093610090936100EE
:107180000FBE81E085BF82E085BF85C342E061EC30
:1071900082E00CD342E161E883E008D342E160E899
:1071A00084E004C3809196018032A1F0813229F5F8
:1071B00080919501813A09F58091E800877F80935D
:1071C000E80067E070E081E091E035D58091E8006B
:1071D0008B7711C080919501813279F48091E8001C
:1071E000877F8093E80067E070E081E091E080D5E0
:1071F0008091E8008E778093E80008958F929F92A7
:10720000AF92BF92CF92DF92EF92FF920F931F93B4
:10721000CF93DF9384E08093E9008091E80082FFC0
:1072200035C210928E0168DFC82F8C3409F446C035
:10723000803509F443C0843529F0853429F410924F
:1072400000013CC059DF3AC0843729F484E46BDF85
:1072500080E069DFF2C1813611F489E5FACF81342B
:1072600079F54ADF90E0982F8827990F092E000CB6
:10727000AA0BBB0B80938F0190939001A093910177
:10728000B093920139DF90E0880F991F092E000C0E
:10729000AA0BBB0B40918F0150919001609191011D
:1072A00070919201842B952BA62BB72B80938F0185
:1072B00090939001A0939101B09392018DE0C9CF7A
:1072C000803711F483E5C5CF833549F4C4E8D1E0B4
:1072D0001C2F195F899127DF1C13FCCFAEC18635A7
:1072E00021F481E320DF80E3B4CF833731F487E8F2
:1072F0001ADF85E918DF8EE1ACCF823631F489E5FB
:1073000012DF80E010DF80E8A4CF8536B9F4E0E03A
:10731000F0E083E095E080935700E89507B600FC25
:10732000FDCF90935700E89507B600FCFDCFEF57CF
:10733000FF4FEF3540E7F40771F7C0CF8C3651F4BB
:10734000DBDE809599E0E1E0F0E0082E90935700B5
:10735000E895B4CF823719F4E1E0F0E00EC086344E
:1073600019F4E0E0F0E009C08E3419F4E3E0F0E055
:1073700004C0813539F4E2E0F0E089E08093570001
:10738000849167CF833471F4C0918F01D0919001C3
:10739000B3DE90E021E0FE010C0120935700E89558
:1073A00011248CCF833679F4C0918F01D091900154
:1073B000C160A2DE90E021E0FE010C0120935700A5
:1073C000E895112407C18D3661F4E0918F01F091A9
:1073D000900185E080935700E89507B600FCFDCF4B
:1073E0006DCF823419F0873609F0D7C085DE082FBB
:1073F00083DED82F81DE182F8BEB810F823010F0C7
:107400008FE327CF2D2F30E0302BC73609F04EC049
:1074100081E180935700E895E90100E0FF24F394AF
:10742000209709F40AC11634F1F4E0918F01F0912C
:107430009001E02B849177DE002399F080918F01F9
:1074400090919001A0919101B09192010296A11D9D
:10745000B11D80938F0190939001A0939101B093FF
:1074600092010F2521C080918F0190919001A091F0
:107470009101B0919201B695A795979587958AD479
:1074800052DE80918F0190919001A0919101B09175
:1074900092010296A11DB11D80938F0190939001DE
:1074A000A0939101B09392012197BACFC0908F0120
:1074B000D0909001E0909101F0909201163441F447
:1074C00083E0F60180935700E89507B600FCFDCFF6
:1074D000E901B12C00E0AA24A394209709F451C03B
:1074E000163451F5002321F180908F019090900186
:1074F00003DE2B2D30E0A901582BF4010A01A092E4
:107500005700E895112480918F0190919001A091EE
:107510009101B09192010296A11DB11D80938F013E
:1075200090939001A0939101B093920100E027C045
:10753000E3DDB82E01E023C0DFDD682F80918F01ED
:1075400090919001A0919101B0919201B695A7956B
:107550009795879527D440918F0150919001609124
:107560009101709192014E5F5F4F6F4F7F4F40933B
:107570008F01509390016093910170939201219734
:10758000ACCF163409F09ACE85E0F601809357000F
:10759000E89507B600FCFDCF91CE823551F4E0911D
:1075A0008F01F0919001C591D4918D2FBCDD8C2F6E
:1075B00050CE8434D9F4A0DD682F80918F01909152
:1075C0009001A0919101B0919201B695A7959795E0
:1075D0008795E8D380918F0190919001A0919101BE
:1075E000B09192010296A11DB11D60CE843611F5B5
:1075F00080918F0190919001A0919101B0919201A1
:10760000B695A79597958795C5D38DDD80918F0108
:1076100090919001A0919101B09192010296A11DCB
:10762000B11D80938F0190939001A0939101B0932D
:10763000920103C08B3109F0E3CE83E08093E9002F
:107640009091E8008091E8008E778093E80095FDA6
:1076500011C08091E80080FD04C08EB38111F9CF84
:1076600015C08091E8008E778093E80003C08EB348
:10767000882361F08091E80080FFF9CF84E0809357
:10768000E9008091E8008B778093E800DF91CF914B
:107690001F910F91FF90EF90DF90CF90BF90AF9030
:1076A0009F908F90089594B714BE80916000886178
:1076B000809360001092600010928E0191FD0BC0CB
:1076C000E0E0F0E085919491019629F0E0918C0141
:1076D000F0918D0109953EDD6E9A769A789411E0CD
:1076E000C0E0D0E0E12CF12C80910001882319F159
:1076F00085DD39D3DF5F11F4C10F769ADC1301C049
:107700007698CF3F59F0C1110AC0113041F08091F5
:107710008E018F5F80938E0111E001C01FEF809179
:107720008E01853008F3F701859194910196E1F27D
:1077300010920001D9CF8091E00081608093E00039
:107740009CE088E10FB6F894A895809360000FBE86
:1077500090936000FFCF292F30E02230310559F09F
:107760002330310569F021303105C1F482E190E028
:1077700022E731E017C08EE390E024E331E012C04D
:10778000811106C08091300190E020E331E00AC011
:107790008091080190E028E031E004C080E090E0B2
:1077A00020E030E0FA013183208308958093E900DE
:1077B000EBEEF0E0808181608083EDEEF0E01082FE
:1077C0006093EC0040838091EE00881F8827881F1B
:1077D00008958091950187FF0FC08091E80082FD98
:1077E00004C08EB38111F9CF10C08091E8008B776F
:1077F0000AC08EB3882349F08091E80080FFF9CF5A
:107800008091E8008E778093E80008954DD054D0A1
:107810008091D800982F9F779093D80080688093AC
:10782000D8008AE482BF80E189BD89B5826089BDC4
:1078300009B400FEFDCF8091D8008F7D8093D800E1
:107840001EBA109293018091E0008B7F8093E0003C
:107850008091D80081608093D80042E060E080E0B1
:10786000A5DF8091E1008E7F8093E1008091E200AE
:1078700081608093E2008091E20088608093E20062
:107880008091E0008E7F8093E0008091D80080613D
:107890008093D8000895E7EDF0E0808181608083D7
:1078A00081E080939401B2CFE8EDF0E080818E7F9B
:1078B00080831092E20008951092DA001092E100A5
:1078C00008951F920F920FB60F9211242F933F939A
:1078D0004F935F936F937F938F939F93AF93BF93D8
:1078E000EF93FF938091DA0080FF13C08091D8005E
:1078F00080FF0FC08091DA008E7F8093DA00809144
:10790000D90080FF04C081E08EBB94D102C01EBAB2
:1079100091D18091E10080FF1CC08091E20080FF46
:1079200018C08091E1008E7F8093E1008091E20099
:107930008E7F8093E2008091E20080618093E2007C
:107940008091D80080628093D80019BC85E08EBBFE
:1079500071D18091E10084FF2DC08091E20084FF0D
:1079600029C080E189BD89B5826089BD09B400FE66
:10797000FDCF8091D8008F7D8093D8008091E10069
:107980008F7E8093E1008091E2008F7E8093E20001
:107990008091E20081608093E200809193018111E7
:1079A00006C08091E30087FD02C081E001C084E051
:1079B0008EBB40D18091E10083FF21C08091E20025
:1079C00083FF1DC08091E100877F8093E10082E00A
:1079D0008EBB109293018091E1008E7F8093E10035
:1079E0008091E2008E7F8093E2008091E2008061CE
:1079F0008093E20042E060E080E0D8DE1BD180911D
:107A0000E10082FF0AC08091E20082FF06C08091FF
:107A1000E1008B7F8093E1000DD1FF91EF91BF9149
:107A2000AF919F918F917F916F915F914F913F9116
:107A30002F910F900FBE0F901F9018950F931F93CB
:107A4000CF93DF9300D0CDB7DEB7E5E9F1E088E072
:107A50008E0F9091F10091938E13FBCF8091950141
:107A600090919601492F50E04A30510508F0D9C055
:107A7000FA01EA5AF74C88C1803809F4C3C0823849
:107A800009F0CFC08091990187708093E9008091BF
:107A9000EB001092E9009091E800977F9093E80046
:107AA00085FB882780F98093F1001092F10088C04F
:107AB000282F2D7F09F0B5C0823009F0A3C0809136
:107AC0009701811127C080919901877009F49AC0AC
:107AD0008093E9002091EB0020FF1CC0933021F43B
:107AE0008091EB00806214C09091EB0090619093C4
:107AF000EB0021E030E0A90102C0440F551F8A9538
:107B0000E2F74093EA001092EA008091EB0088606F
:107B10008093EB001092E9008091E800877F53C0CA
:107B200081117FC080919701182F1F770FB7F894AC
:107B30008091E800877F8093E8004BDE8091E80029
:107B400080FFFCCF111102C082E001C083E08EBB38
:107B50008091E3008078812B8093E3008091E300A3
:107B600080688093E3000FBF4DC08058823008F0DA
:107B700058C0AE014F5F5F4F6091990180919701AE
:107B800090919801E8DDBC01892B09F43BC09091EC
:107B9000E800977F9093E80089819A814CD080918A
:107BA000E8008B778093E8002DC08038D1F5809174
:107BB000E800877F8093E800809193018093F10033
:107BC0008091E8008E778093E80003DE1BC081116E
:107BD00028C0909197019230A8F48091E800877FA7
:107BE0008093E80090939301F4DD809193018111DB
:107BF00006C08091E30087FD02C081E001C084E0FF
:107C00008EBBC4DA8091E80083FF0DC08091EB0049
:107C100080628093EB008091E800877F8093E8008A
:107C200002C0C0DAEFCF0F900F90DF91CF911F917C
:107C30000F910895089520919B0130919C01261782
:107C4000370748F06115710539F42091E8002E7767
:107C50002093E80001C0B90140E061157105A1F170
:107C60002EB3222309F440C0253009F43FC02091EF
:107C7000E80023FD37C02091E80022FD2DC02091AF
:107C8000E80020FFEACF4091F3002091F20030E0BD
:107C9000342BFC01CF016115710559F028303105F5
:107CA00040F481918093F100615071092F5F3F4F43
:107CB000F1CF41E02830310509F040E02091E800A3
:107CC0002E772093E800C9CF4111CACF05C08EB3EB
:107CD000882351F0853051F08091E80082FFF7CF82
:107CE00080E0089581E0089582E0089583E008959A
:107CF0006115710529F42091E8002B772093E800A5
:107D00006115710521F12EB3222349F1253049F186
:107D10002091E80023FD21C02091E80022FFF0CF50
:107D20004091F3002091F20030E0342B232B19F323
:107D300001962091F100FC01319720836150710977
:107D400079F7D9CF8EB3882351F0853051F08091E7
:107D5000E80080FFF7CF80E0089581E0089582E099
:107D6000089583E00895CF938EB3882359F0C0918E
:107D7000E900C7701092E9008091E80083FD5EDEA3
:107D8000C093E900CF910895EE0FFF1F0590F49185
:107D9000E02D0994F999FECF92BD81BDF89A9927FB
:107DA00080B50895262FF999FECF1FBA92BD81BDE7
:107DB00020BD0FB6F894FA9AF99A0FBE019608956D
:047DC000F894FFCF65
:107DC4000100000000000008260341005600520094
:107DD4002000430044004300200042006F006F0075
:107DE40074006C006F0061006400650072000000A4
:107DF4000403090409023E00020100803209040060
:107E040000010202010005240010010424020405FB
:107E14002406000107058203080002090401000288
:107E24000A00000007050402100000070583021081
:107E3400000012011001020000089A230100010051
:0C7E4400000100014C554641434443003E
:040000030000700089
:00000001FF
